:0400000056EF00F0C7
:10000800FACF01F0FBCF02F0E9CF03F0EACF04F01A
:10001800E1CF05F0E2CF06F0D9CF07F0DACF08F04C
:10002800F3CF09F0F4CF0AF0F6CF0BF0F7CF0CF0CE
:10003800F8CF0DF0F5CF0EF09EA607D09E96C6BE5F
:1000480002D0C6AC02D0C69CC69EA1B6A196F2A4A8
:100058000CD0F2940001CB51FF0BD76E0001CA51AE
:10006800FF0BD66E010E0001D16F0EC0F5FF0DC05B
:10007800F8FF0CC0F7FF0BC0F6FF0AC0F4FF09C079
:10008800F3FF08C0DAFF07C0D9FF06C0E2FF05C0CA
:10009800E1FF04C0EAFF03C0E9FF02C0FBFF01C0A3
:1000A800FAFF110074EF15F09EEF09F00001955169
:1000B800250AD8B43DD0000120EE02F000016651B7
:1000C800D92600016751DA22DE50DD10D8B418D0E5
:1000D800000120EE02F000016651D92600016751A7
:1000E800DA2202D89EEF09F00500FA6EDE50FD6EA6
:1000F800DE50FE6EF850FF6EFA5000019551120066
:1001080066C0D9FF67C0DAFFDECF6CF0DDCF6DF0D7
:100118006CC0D9FF6DC0DAFF000195C0DFFF66C073
:10012800D9FF67C0DAFFDE2A000EDD229EEF09F054
:10013800000E0001886F000E0001876F000E00019D
:10014800916F000E0001906F05D0000190850001AD
:10015800684B692B000168C0F6FF000169C0F7FF12
:100168000800F550300AD8B4F0D7000168C0F6FF8F
:10017800000169C0F7FF0800F55085EC17F0D8A01A
:100188004AD0000E0001886F000E0001876F87C0FB
:100198001DF088C01EF0000E206E0A0E1F6E2AEC9D
:1001A80017F01DC087F01EC088F0D00E00016C6FDC
:1001B800FF0E6D6F000168C0F6FF000169C0F7FF10
:1001C8000800F55000016E6F6F6B00016C51000163
:1001D8006E2700016D5100016F2300016E5100016F
:1001E800872700016F51000188230001684B692BA4
:1001F800000168C0F6FF000169C0F7FF0800F5506C
:1002080085EC17F0D8A007D0C2D70001918524D07B
:100218000001908F21D0000168C0F6FF000169C07D
:10022800F7FF0001684B692B08000001F5CF95F036
:1002380000019551000AD8B4AFEF09F0640AD8B4A8
:100248000BD0020AD8B4E1D70F0AD8B405D0110AE6
:10025800D8B4DED79EEF09F0070E00019115D8B487
:10026800A7EF06F0000E0001866F060E0001856FED
:100278006AC0D9FF6BC0DAFFDFCF6CF0030EDE2651
:10028800DFCF6DF0000EDD226CC0D9FF6DC0DAFF44
:100298000001DECF92F00001DECF93F00001DDCF48
:1002A80094F000019451800A800F07E1000E0001CC
:1002B800935D03E1000E0001925DD8B011D092C0A9
:1002C8000FF093C010F094C011F03DEC17F00FC080
:1002D80092F010C093F011C094F0030E0001901337
:1002E800000E00018A6F000E0001896F7F0E000169
:1002F80094150001931100019211D8B49CD0820E7C
:1003080000016C6FFF0E6D6F000192C06EF000016E
:1003180093C06FF0000194C070F0000195C071F0B7
:10032800100E06D00001D890713370336F336E33DE
:10033800E82EF8D700016E5100016C250001896F85
:10034800000E00016D2100018A6F00018907D8A005
:100358008A0789C01DF08AC01EF0000E206E030EA9
:100368001F6E2AEC17F01DC089F01EC08AF089C0E4
:1003780015F08AC016F0000E186E0A0E176E75EC8E
:1003880012F015C089F016C08AF000018A51800A5F
:10039800F36E800EF35C000ED8B4895DD8B004D03B
:1003A80000018907D8A08A07000189510008B6EC26
:1003B80009F039C082F03AC083F03BC084F082C0B3
:1003C8002AF083C02BF084C02CF092C02DF093C08B
:1003D8002EF094C02FF072EC10F02AC082F02BC0DF
:1003E80083F02CC084F082C00FF083C010F084C06A
:1003F80011F0000E126E800E136E3F0E146E5CEC40
:1004080013F0D8B005D000018907D8A08A0713D007
:1004180082C00FF083C010F084C011F0000E126E7D
:10042800200E136E410E146E5CEC13F0D8A003D0AE
:100438000001894B8A2B00018651800AF36E800ED9
:10044800F35C0D0ED8B4855DD8B018D092C017F003
:1004580093C018F094C019F000018551BAEC0BF064
:1004680039C01AF03AC01BF03BC01CF0E3EC0CF0AA
:1004780017C092F018C093F019C094F000018A5187
:10048800800AF36E800EF35C0A0ED8B4895DD8B08A
:1004980029D07F0E000194150001931100019211DB
:1004A800D8B46CD092C040F093C041F094C042F0F0
:1004B8003EEC0FF040C06CF041C06DF042C06EF0F1
:1004C80043C06FF000016F516C116D116E11D8A40B
:1004D80055D000018A51800A800F020ED8B4895D78
:1004E800D8A04CD082C00FF083C010F084C011F0A7
:1004F800700E126E890E136E400E146E5CEC13F0C3
:10050800D8B003D00001F70E02D00001F80E0001A8
:100518008927FF0E00018A2300018951B6EC09F0F2
:1005280039C082F03AC083F03BC084F092C00FF02B
:1005380093C010F094C011F082C012F083C013F081
:1005480084C014F0D9EC0FF00FC075F010C076F02D
:1005580011C077F012C078F075C08BF076C08CF0BF
:1005680077C08DF078C08EF0000E0001926F000EFB
:100578000001936F000E0001946F34D092C040F0D8
:1005880093C041F094C042F03EEC0FF040C08BF0B5
:1005980041C08CF042C08DF043C08EF092C023F071
:1005A80093C024F094C025F08BC017F08CC018F0CD
:1005B8008DC019F08EC01AF0A4EC15F017C026F003
:1005C80018C027F019C028F0CCEC16F023C092F020
:1005D80024C093F025C094F0000E00018A6F000E2D
:1005E8000001896F010E0001956F000195510A0AFB
:1005F800D8B41ED000019551040DCD0EF324F66E2B
:100608007E0EF420F76E0900F55000018B5D09009D
:10061800F55000018C590900F55000018D59090069
:10062800F55000018E59D8A003D00001952BDDD7D5
:10063800000195C06CF000016D6B6CBF6D07000187
:10064800855100016C270001865100016D230001CE
:10065800895100016C2700018A5100016D230001B6
:100668006C510001875F00016D510001885B00013A
:1006780086518511D8B404D000018707D8A088070F
:10068800030E0001901500016C6F000E000191151A
:1006980000016D6F00016D516C11D8B404D00001D8
:1006A8008707D8A08807000190A5CCD0030E0001C9
:1006B800901500016C6F000E0001911500016D6F1F
:1006C80000016D516C11D8B475D0000120EE02F014
:1006D80000016651D92600016751DA22DE50DD108B
:1006E800D8B416D0000120EE02F000016651D926D8
:1006F80000016751DA2201D85DD00500FA6EDE509C
:10070800FD6EDE50FE6EF850FF6EFA502D0E120090
:1007180066C0D9FF67C0DAFFDECF6CF0DDCF6DF0C1
:100728006CC0D9FF6DC0DAFF2D0EDF6E66C0D9FF31
:1007380067C0DAFFDE2A000EDD223CD0000120EE81
:1007480002F000016651D92600016751DA22DE5015
:10075800DD10D8B416D0000120EE02F00001665179
:10076800D92600016751DA2201D820D00500FA6E97
:10077800DE50FD6EDE50FE6EF850FF6EFA50300E01
:10078800120066C0D9FF67C0DAFFDECF6CF0DDCF9C
:100798006DF06CC0D9FF6DC0DAFF300EDF6E66C039
:1007A800D9FF67C0DAFFDE2A000EDD2200018707C5
:1007B800D8A0880700018851800AF36E800EF35C88
:1007C800010ED8B4875DD8A005D1B8D7000120EEB6
:1007D80002F000016651D92600016751DA22DE5085
:1007E800DD10D8B416D0000120EE02F000016651E9
:1007F800D92600016751DA2201D820D00500FA6E07
:10080800DE50FD6EDE50FE6EF850FF6EFA50200E80
:10081800120066C0D9FF67C0DAFFDECF6CF0DDCF0B
:100828006DF06CC0D9FF6DC0DAFF200EDF6E66C0B8
:10083800D9FF67C0DAFFDE2A000EDD220001870734
:10084800D8A0880700018851800AF36E800EF35CF7
:10085800010ED8B4875DD8B0B9D7030E0001901542
:1008680000016C6F000E0001911500016D6F000111
:100878006D516C11D8B4AED0000120EE02F0000129
:100888006651D92600016751DA22DE50DD10D8B44E
:1008980016D0000120EE02F000016651D9260001B1
:1008A8006751DA2201D896D00500FA6EDE50FD6E47
:1008B800DE50FE6EF850FF6EFA502D0E120066C024
:1008C800D9FF67C0DAFFDECF6CF0DDCF6DF06CC00A
:1008D800D9FF6DC0DAFF2D0E75D08BC00FF08CC01C
:1008E80010F08DC011F08EC012F000019551040D6A
:1008F800CD0EF324F66E7E0EF420F76E0900F5CFC8
:1009080013F00900F5CF14F00900F5CF15F00A002F
:10091800F5CF16F02BEC14F00FC07AF010C07BF076
:1009280011C07CF012C07DF07AC01CF07BC01DF0B5
:100938007CC01EF07DC01FF00A0E206E000E216ED6
:10094800000E226E000E236EDDEC14F01CC07AF04F
:100958001DC07BF01EC07CF01FC07DF0000120EEA2
:1009680002F000016651D92600016751DA22DE50F3
:10097800DD10D8B418D0000120EE02F00001665155
:10098800D92600016751DA2201D824D00500FA6E71
:10099800DE50FD6EDE50FE6EF850FF6EFA5000011C
:1009A8007A51300F120000017A51300F66C0D9FF1A
:1009B80067C0DAFFDECF6CF0DDCF6DF06CC0D9FF19
:1009C8006DC0DAFFDF6E66C0D9FF67C0DAFFDE2AC6
:1009D800000EDD220001950700019529D8B43DD00D
:1009E8007CD7000120EE02F000016651D9260001F3
:1009F8006751DA22DE50DD10D8B416D0000120EE9F
:100A080002F000016651D92600016751DA2201D8A7
:100A180020D00500FA6EDE50FD6EDE50FE6EF850F6
:100A2800FF6EFA50300E120066C0D9FF67C0DAFFB9
:100A3800DECF6CF0DDCF6DF06CC0D9FF6DC0DAFF92
:100A4800300EDF6E66C0D9FF67C0DAFFDE2A000EFF
:100A5800DD2200018907D8A08A0700018A51800A8F
:100A6800F36E800EF35C010ED8B4895DD8B0B9D7A7
:100A780000018651800A800F090ED8B4855DD8A080
:100A880004D0080E0001956F02D085C095F00001D2
:100A980095510001855F000E000195BFFF0E000112
:100AA800865B00019551D8B438D0000120EE02F0E1
:100AB80000016651D92600016751DA22DE50DD10A7
:100AC800D8B416D0000120EE02F000016651D926F4
:100AD80000016751DA2201D820D00500FA6EDE50F5
:100AE800FD6EDE50FE6EF850FF6EFA502E0E1200AC
:100AF80066C0D9FF67C0DAFFDECF6CF0DDCF6DF0DE
:100B08006CC0D9FF6DC0DAFF2E0EDF6E66C0D9FF4C
:100B180067C0DAFFDE2A000EDD2200019551B6EC2F
:100B280009F039C072F03AC073F03BC074F092C05B
:100B38002DF093C02EF094C02FF072C02AF073C02D
:100B48002BF074C02CF072EC10F02AC040F02BC0CF
:100B580041F02CC042F03EEC0FF040C08BF041C099
:100B68008CF042C08DF043C08EF0A4D08BC00FF043
:100B78008CC010F08DC011F08EC012F0000195519C
:100B8800040DCD0EF324F66E7E0EF420F76E0900E8
:100B9800F5CF13F00900F5CF14F00900F5CF15F0E3
:100BA8000A00F5CF16F02BEC14F00FC07EF010C041
:100BB8007FF011C080F012C081F07EC01CF07FC0B1
:100BC8001DF080C01EF081C01FF00A0E206E000EBE
:100BD800216E000E226E000E236EDDEC14F01CC098
:100BE8007EF01DC07FF01EC080F01FC081F00001A4
:100BF80020EE02F000016651D92600016751DA2281
:100C0800DE50DD10D8B418D0000120EE02F000014B
:100C18006651D92600016751DA2201D824D005008F
:100C2800FA6EDE50FD6EDE50FE6EF850FF6EFA5022
:100C380000017E51300F120000017E51300F66C056
:100C4800D9FF67C0DAFFDECF6CF0DDCF6DF06CC086
:100C5800D9FF6DC0DAFFDF6E66C0D9FF67C0DAFF63
:100C6800DE2A000EDD228BC01CF08CC01DF08DC06A
:100C78001EF08EC01FF000019551040DCD0EF32417
:100C8800F66E7E0EF420F76E0900F5CF20F009000D
:100C9800F5CF21F00900F5CF22F00A00F5CF23F0B7
:100CA800DDEC14F01CC08BF01DC08CF01EC08DF064
:100CB8001FC08EF00001950700019529D8B43DD0DA
:100CC80055D7000120EE02F000016651D926000137
:100CD8006751DA22DE50DD10D8B416D0000120EEBC
:100CE80002F000016651D92600016751DA2201D8C5
:100CF80020D00500FA6EDE50FD6EDE50FE6EF85014
:100D0800FF6EFA50300E120066C0D9FF67C0DAFFD6
:100D1800DECF6CF0DDCF6DF06CC0D9FF6DC0DAFFAF
:100D2800300EDF6E66C0D9FF67C0DAFFDE2A000E1C
:100D3800DD2200018507D8A08607000186518511AC
:100D4800D8B4F8D2BED7000190BF44D06AC0D9FF4A
:100D58006BC0DAFFDFCF6CF0020EDE26DFCF6DF05E
:100D6800000EDD226CC0D9FF6DC0DAFF0001DECFB6
:100D78008BF00001DDCF8CF00001000E00018CBF6C
:100D8800FF0E00018D6F00018E6F00018E51800AE9
:100D9800800F0BE1000E00018D5D07E1000E0001E0
:100DA8008C5D03E1000E00018B5DD8B07ED0030E90
:100DB8000001901300018E1F00018D1F00018C1F80
:100DC80000018B6D000E00018C2300018D230001B2
:100DD8008E236BD06AC0D9FF6BC0DAFFDFCF6CF00F
:100DE800020EDE26DFCF6DF0000EDD226CC0D9FFCB
:100DF8006DC0DAFFDECF6EF0DDCF6FF000016EC0A0
:100E08008BF000016FC08CF000018D6B00018E6BC0
:100E18004CD0010E0001956F000195510A0AD8B413
:100E28004DD000019551040DCD0EF324F66E7E0EC3
:100E3800F420F76E0900F55000018B5D0900F550AC
:100E480000018C590900F55000018D590900F55031
:100E580000018E59D8A032D00001952BDDD7010EA4
:100E68000001956F00019551080AD8B427D00001F8
:100E78009551040D430EF324F66E7F0EF420F76EA1
:100E88000900F55000018B5D0900F55000018C59EF
:100E98000900F55000018D590900F55000018E59DF
:100EA800D8A00CD00001952BDDD700019051800B04
:100EB800000AD8B4AED7800AD8B4D1D70001885177
:100EC8008711D8B413D0030E0001901500016C6F80
:100ED800000E0001911500016D6F00016D516C113C
:100EE800D8B404D000018707D8A08807800E000175
:100EF80095BF7F0E00016C6F000187510001955D61
:100F080000018851800A00016C59D8B00BD000014B
:100F180095510001875F000E000195BFFF0E00018B
:100F2800885B06D0000E0001886F000E0001876FF5
:100F3800000190A58AD0030E0001901500016C6F86
:100F4800000E0001911500016D6F00016D516C11CB
:100F5800D8B438D0000120EE02F000016651D9263D
:100F680000016751DA22DE50DD10D8B416D0000136
:100F780020EE02F000016651D92600016751DA22FD
:100F880001D820D00500FA6EDE50FD6EDE50FE6EF0
:100F9800F850FF6EFA502D0E120066C0D9FF67C0D8
:100FA800DAFFDECF6CF0DDCF6DF06CC0D9FF6DC01D
:100FB800DAFF2D0EDF6E66C0D9FF67C0DAFFDE2AC2
:100FC800000EDD220001000188518711D8B4CAD073
:100FD800000120EE02F000016651D9260001675198
:100FE800DA22DE50DD10D8B416D0000120EE02F06F
:100FF80000016651D92600016751DA2201D820D0B4
:101008000500FA6EDE50FD6EDE50FE6EF850FF6E83
:10101800FA50300E120066C0D9FF67C0DAFFDECF83
:101028006CF0DDCF6DF06CC0D9FF6DC0DAFF300E0B
:10103800DF6E66C0D9FF67C0DAFFDE2A000EDD2248
:1010480000018707D8A08807BED7000188518711FB
:10105800D8B441D0000120EE02F000016651D92633
:1010680000016751DA22DE50DD10D8B416D0000135
:1010780020EE02F000016651D92600016751DA22FC
:1010880001D820D00500FA6EDE50FD6EDE50FE6EEF
:10109800F850FF6EFA50200E120066C0D9FF67C0E4
:1010A800DAFFDECF6CF0DDCF6DF06CC0D9FF6DC01C
:1010B800DAFF200EDF6E66C0D9FF67C0DAFFDE2ACE
:1010C800000EDD2200018707D8A08807000188519B
:1010D8008711D8A4BFD7030E0001901500016C6FCB
:1010E800000E0001911500016D6F00016D516C112A
:1010F800D8B438D0000120EE02F000016651D9269C
:1011080000016751DA22DE50DD10D8B416D0000194
:1011180020EE02F000016651D92600016751DA225B
:1011280001D820D00500FA6EDE50FD6EDE50FE6E4E
:10113800F850FF6EFA502D0E120066C0D9FF67C036
:10114800DAFFDECF6CF0DDCF6DF06CC0D9FF6DC07B
:10115800DAFF2D0EDF6E66C0D9FF67C0DAFFDE2A20
:10116800000EDD22000195510001856F0001866B9C
:10117800000185BF8607D4D0000185C06CF000014E
:1011880086C06DF00001D8906C376D370001D8909B
:101198006C376D37CD0E00016C25F66E7E0E6D2115
:1011A800F76E0900F5CF13F00900F5CF14F0090028
:1011B800F5CF15F00A00F5CF16F08BC00FF08CC0F4
:1011C80010F08DC011F08EC012F02BEC14F00FC08F
:1011D8001CF010C01DF011C01EF012C01FF00A0E46
:1011E800206E000E216E000E226E000E236EDDECC6
:1011F80014F01CC06EF01DC06FF01EC070F01FC050
:1012080071F000016E51300F0001956F4FD08BC007
:101218000FF08CC010F08DC011F08EC012F00001DC
:1012280085C06CF0000186C06DF00001D8906C3765
:101238006D370001D8906C376D37430E00016C256F
:10124800F66E7F0E6D21F76E0900F5CF13F00900D9
:10125800F5CF14F00900F5CF15F00A00F5CF16F018
:101268002BEC14F00FC06EF010C06FF011C070F0CE
:1012780012C071F000016E510F0B0001796F00016F
:101288007951010DCB0EF324F66E7F0EF420F76E24
:1012980008000001F5CF95F009D000019051800BAE
:1012A800000AD8B469D7800AD8B4B1D7000120EEB3
:1012B80002F000016651D92600016751DA22DE509A
:1012C800DD10D8B417D0000120EE02F000016651FD
:1012D800D92600016751DA2201D822D00500FA6E1A
:1012E800DE50FD6EDE50FE6EF850FF6EFA500001C3
:1012F8009551120066C0D9FF67C0DAFFDECF6CF0E7
:10130800DDCF6DF06CC0D9FF6DC0DAFF000195C06C
:10131800DFFF66C0D9FF67C0DAFFDE2A000EDD22D4
:1013280000018507D8A0860700018529D8B4862939
:10133800D8A4B3D7000168C0F6FF000169C0F7FF61
:101348000001684B692B08000001F5CF95F00001FA
:1013580095675AEF00F0000E0001676F000E00015C
:10136800666F12003F6E3FAE01D13F6C3F50800A5E
:10137800120FD8A091D0000E206E030E1F6E000E23
:10138800186E0A0E176E000E126E640E116E3F5024
:101398000F6E106A0FBE100614EC13F00FC015F094
:1013A80010C016F075EC12F0090E15241D6E000E13
:1013B80016201E6E2AEC17F0F50E1D24F66E7E0E12
:1013C8001E20F76E0900F5CF2DF00900F5CF2EF09D
:1013D8000A00F5CF2FF0000E186E640E176E3F50FE
:1013E800156E166A15BE160675EC12F0120E152447
:1013F8001D6E000E16201E6E000E206E030E1F6E50
:101408002AEC17F0F50E1D24F66E7E0E1E20F76EE0
:101418000900F5CF2AF00900F5CF2BF00A00F5CF27
:101428002CF072EC10F02AC03CF02BC03DF02CC020
:101438003EF03CC02AF03DC02BF03EC02CF0000E20
:10144800206E030E1F6E000E126E0A0E116E3F50B4
:101458000F6E106A0FBE100614EC13F00FC01DF0CB
:1014680010C01EF02AEC17F0F50E1D24F66E7E0E45
:101478001E20F76E0900F5CF2DF00900F5CF2EF0EC
:101488000A00F5CF2FF072EC10F02AC039F02BC00B
:101498003AF02CC03BF012003F50800A750FD8A0DC
:1014A80053D0000E186E0A0E176E3F50156E166A4E
:1014B80015BE160675EC12F0090E15241D6E000EE9
:1014C80016201E6E000E206E030E1F6E2AEC17F0FB
:1014D800F50E1D24F66E7E0E1E20F76E0900F5CF60
:1014E8002AF00900F5CF2BF00A00F5CF2CF0000EFA
:1014F800206E030E1F6E000E126E0A0E116E3F5004
:101508000F6E106A0FBE100614EC13F00FC01DF01A
:1015180010C01EF02AEC17F0F50E1D24F66E7E0E94
:101528001E20F76E0900F5CF2DF00900F5CF2EF03B
:101538000A00F5CF2FF072EC10F02AC039F02BC05A
:101548003AF02CC03BF012003F50030DF50EF32487
:10155800F66E7E0EF420F76E0900F5CF39F009001B
:10156800F5CF3AF00A00F5CF3BF012003F50800A61
:10157800120FD8A091D0000E206E030E1F6E000E21
:10158800186E0A0E176E000E126E640E116E3F5022
:101598000F6E106A0FBE100614EC13F00FC015F092
:1015A80010C016F075EC12F0090E15241D6E000E11
:1015B80016201E6E2AEC17F01C0E1D24F66E7F0EE8
:1015C8001E20F76E0900F5CF2DF00900F5CF2EF09B
:1015D8000A00F5CF2FF0000E186E640E176E3F50FC
:1015E800156E166A15BE160675EC12F0120E152445
:1015F8001D6E000E16201E6E000E206E030E1F6E4E
:101608002AEC17F01C0E1D24F66E7F0E1E20F76EB6
:101618000900F5CF2AF00900F5CF2BF00A00F5CF25
:101628002CF072EC10F02AC03CF02BC03DF02CC01E
:101638003EF03CC02AF03DC02BF03EC02CF0000E1E
:10164800206E030E1F6E000E126E0A0E116E3F50B2
:101658000F6E106A0FBE100614EC13F00FC01DF0C9
:1016680010C01EF02AEC17F01C0E1D24F66E7F0E1B
:101678001E20F76E0900F5CF2DF00900F5CF2EF0EA
:101688000A00F5CF2FF072EC10F02AC039F02BC009
:101698003AF02CC03BF012003F50800A750FD8A0DA
:1016A80053D0000E186E0A0E176E3F50156E166A4C
:1016B80015BE160675EC12F0090E15241D6E000EE7
:1016C80016201E6E000E206E030E1F6E2AEC17F0F9
:1016D8001C0E1D24F66E7F0E1E20F76E0900F5CF36
:1016E8002AF00900F5CF2BF00A00F5CF2CF0000EF8
:1016F800206E030E1F6E000E126E0A0E116E3F5002
:101708000F6E106A0FBE100614EC13F00FC01DF018
:1017180010C01EF02AEC17F01C0E1D24F66E7F0E6A
:101728001E20F76E0900F5CF2DF00900F5CF2EF039
:101738000A00F5CF2FF072EC10F02AC039F02BC058
:101748003AF02CC03BF012003F50030D1C0EF3245E
:10175800F66E7F0EF420F76E0900F5CF39F0090018
:10176800F5CF3AF00A00F5CF3BF01200426E6D0E4D
:1017780042649FD0000E206E030E1F6E000E186E7E
:101788000A0E176E000E126E640E116E42C00FF034
:10179800106A14EC13F00FC015F010C016F075ECB9
:1017A80012F0090E15241D6E000E16201E6E2AEC6E
:1017B80017F0F50E1D24F66E7E0E1E20F76E09003A
:1017C800F5CF2DF00900F5CF2EF00A00F5CF2FF058
:1017D800000E186E640E176E42C015F0166A75EC8E
:1017E80012F0120E15241D6E000E16201E6E000E2D
:1017F800206E030E1F6E2AEC17F0F50E1D24F66EF0
:101808007E0E1E20F76E0900F5CF2AF00900F5CFED
:101818002BF00A00F5CF2CF072EC10F02AC03FF044
:101828002BC040F02CC041F0000E206E030E1F6E3E
:10183800000E126E0A0E116E42C00FF0106A14EC00
:1018480013F00FC01DF010C01EF02AEC17F0F50EB3
:101858001D24F66E7E0E1E20F76E0900F5CF2DF0C2
:101868000900F5CF2EF00A00F5CF2FF03FC02AF07F
:1018780040C02BF041C02CF072EC10F02AC03CF0B4
:101888002BC03DF02CC03EF03CC02AF03DC02BF0F0
:101898003EC02CF0000E2D6E000E2E6E3F0E2F6EE9
:1018A80072EC10F02AC039F02BC03AF02CC03BF093
:1018B80012000A0E426463D0000E206E030E1F6EE3
:1018C800000E126E0A0E116E42C00FF0106A14EC70
:1018D80013F00FC01DF010C01EF02AEC17F0F50E23
:1018E8001D24F66E7E0E1E20F76E0900F5CF2DF032
:1018F8000900F5CF2EF00A00F5CF2FF0000E186E74
:101908000A0E176E42C015F0166A75EC12F0090E31
:1019180015241D6E000E16201E6E000E206E030E7E
:101928001F6E2AEC17F0F50E1D24F66E7E0E1E2093
:10193800F76E0900F5CF2AF00900F5CF2BF00A0061
:10194800F5CF2CF072EC10F02AC03FF02BC040F01D
:101958002CC041F03FC02AF040C02BF041C02CF011
:10196800000E2D6E000E2E6E3F0E2F6E72EC10F0D4
:101978002AC039F02BC03AF02CC03BF0120042507C
:10198800030DF50EF324F66E7E0EF420F76E0900B3
:10199800F5CF2AF00900F5CF2BF00A00F5CF2CF08F
:1019A800000E2D6E000E2E6E3F0E2F6E72EC10F094
:1019B8002AC039F02BC03AF02CC03BF0120019C0F5
:1019C8001DF01E6A1F6A18341D3601E31E801D5063
:1019D800226E1CC01DF01E6A1F6A1B341D3601E3EF
:1019E8001E801D50216E2250D8B40CD02150225C8C
:1019F800D8B00FD02250000821241D6E190E1D5C8E
:101A0800D8A007D01AC017F01BC018F01CC019F0D6
:101A180012002150D8B40CD02250215CD8B00FD07D
:101A28002150000822241D6E190E1D5CD8A007D075
:101A380017C017F018C018F019C019F01200060ED8
:101A4800206E19BE208E1CBE208C188EFF0E171615
:101A5800FF0E1816000E19161B8EFF0E1A16FF0E13
:101A68001B16000E1C162150225CD8B01AD0D89034
:101A78001A361B361C36210621502218D8B40DD030
:101A8800200620C01DF0070E1D16D8B406D0EFD7CB
:101A9800D890193218321732222A21502262F8D7E8
:101AA8001DD02250215CD8B019D0D89017361836DE
:101AB8001936220621502218D8B40DD0200620C08D
:101AC8001DF0070E1D16D8B406D0EFD7D8901C32DB
:101AD8001B321A32212A21502262F8D720AE0CD0AC
:101AE800FF0E171AFF0E181AFF0E191A010E1726E5
:101AF800000E1822000E192220AC0CD0FF0E1A1A64
:101B0800FF0E1B1AFF0E1C1A010E1A26000E1B22AE
:101B1800000E1C22000E206E17501A2618501B2289
:101B280019501C221CAE0ED0FF0E1A1AFF0E1B1ADB
:101B3800FF0E1C1A010E1A26000E1B22000E1C2274
:101B4800010E206E1AC00FF01BC010F01CC011F05F
:101B580022C012F020C013F021EC12F00FC017F0D1
:101B680010C018F011C019F0120095EC17F0000120
:101B7800000E3A6E0001D20E396E5BEC11F039C0DE
:101B8800C4F03AC0C5F03BC0C6F00001000E146EA8
:101B98000001CC0E136E0001000E166E0001CD0E72
:101BA800156E0001000E186E0001CE0E176E6CEC5B
:101BB80014F00001000E166E0001DA0E156E000119
:101BC800000E186E0001DB0E176E0001000E1A6E73
:101BD8000001DC0E196EE9EC13F00001000E3A6EFC
:101BE8000001C70E396EA4EC13F00101010E0001CB
:101BF800976F0101000E0001966F7F0E0001996F2B
:101C0800630E0001986F0001DC510001CF2500012F
:101C18009A6F000E0001D02100019B6F0001DBC00C
:101C28009CF000019D6B0001DAC09EF000019F6BE3
:101C38000001CCC0A0F00001A16B0001CDC0A2F052
:101C48000001A36B0001CEC0A4F00001A56BC4C0C5
:101C5800A6F0C5C0A7F0C6C0A8F0C7C0A9F0C8C004
:101C6800AAF0C9C0ABF0AAEC14F00101010E106E85
:101C78000101000E0F6E90EC16F00101010E00013B
:101C8800976F0101000E0001966F7F0E0001996F9A
:101C9800A60E0001986F0001DC510001CF2500015C
:101CA8009A6F000E0001D02100019B6F0001DBC07C
:101CB8009CF000019D6B0001DAC09EF000019F6B53
:101CC8000001CCC0A0F00001A16B0001CDC0A2F0C2
:101CD8000001A36B0001CEC0A4F00001A56BC4C035
:101CE800A6F0C5C0A7F0C6C0A8F0C7C0A9F0C8C074
:101CF800AAF0C9C0ABF0AAEC14F00101010E106EF5
:101D08000101000E0F6E71EC16F012000FC015F0F5
:101D180010C016F011C017F012C018F0180E05D038
:101D2800D8901832173216321532E82EF9D71550D6
:101D38001E6E1E6609D0000E0F6E000E106E000E8D
:101D4800116E000E126E120012C015F013C016F0BC
:101D580014C017F015C018F0180E05D0D890183216
:101D6800173216321532E82EF9D715501D6E1D663A
:101D780009D0000E0F6E000E106E000E116E000ED0
:101D8800126E1200118EFF0E0F16FF0E1016FF0EA8
:101D98001116000E1216148EFF0E1216FF0E1316D1
:101DA800FF0E1416000E1516000E196E000E1A6E90
:101DB800000E1B6E000E1C6E7F0E1E5E1D50A00FC7
:101DC8001E5E200E1D6ED89019361A361B361C362C
:101DD80012500F5C135010581450115815501258C7
:101DE800D8A009D012500F5E1350105A1450115A2F
:101DF8001550125A1980D8900F36103611361236EF
:101E08001D2EE1D71EAE19D01E50800A156EE10EA8
:101E1800800A155CD8B009D0000E0F6E000E106E47
:101E2800000E116E000E126E1200D8901C321B327A
:101E38001A3219321E3EF9D714D01F0E1E640FD065
:101E4800000E0F6E000E106E000E116E000E126E58
:101E58001200D89019361A361B361C361E061E6616
:101E6800F8D719C00FF01AC010F01BC011F01CC031
:101E780012F0120042C044F0456A466A41344436C2
:101E880001E3458044500001656F0001656709D092
:101E9800000E406E000E416E000E426E000E436E44
:101EA8001200170E446E40C045F041C046F042C0D3
:101EB80047F04428486E04D0D8904732463245321D
:101EC800482EFAD745500001606F418EFF0E40162C
:101ED800FF0E4116000E421640500001616F41503E
:101EE8000001626F42500001636F0001646B8E0E47
:101EF8000001655F000165AF20D000016551800ACF
:101F0800446EF10E800A445CD8B009D0000E406ED1
:101F1800000E416E000E426E000E436E120000016C
:101F2800D89000016433000163330001623300017B
:101F380061330001653FF3D71CD0170E00016565BA
:101F480015D0000E406E000E416E000E426E000E5F
:101F5800436E12000001D89000016137000162371A
:101F680000016337000164370001650700016567F8
:101F7800F1D700016051D8B40FD00001641F0001EF
:101F8800631F0001621F0001616D000E00016223E2
:101F9800000163230001642361C040F062C041F086
:101FA80063C042F064C043F0120011C015F0166A15
:101FB800176A1034153601E3168015501D6E1D661C
:101FC80009D0000E0F6E000E106E000E116E000E7E
:101FD800126E120014C015F0166A176A13341536FB
:101FE80001E3168015501C6E1C6609D0000E0F6E9A
:101FF800000E106E000E116E000E126E1200108E82
:10200800FF0E0F16FF0E1016000E1116138EFF0E80
:102018001216FF0E1316000E1416000E186E000E80
:10202800196E000E1A6E000E1B6E7F0E1D5E1C5080
:10203800980F1D5E180E1C6ED890183619361A3671
:102048001B3612500F5C1350105814501158D8A05A
:1020580007D012500F5E1350105A1450115A18809E
:10206800D8900F36103611361C2EE6D71DAE19D073
:102078001D50800A156EE90E800A155CD8B009D08B
:10208800000E0F6E000E106E000E116E000E126E16
:102098001200D8901B321A32193218321D3EF9D765
:1020A80014D0170E1D640FD0000E0F6E000E106EA8
:1020B800000E116E000E126E1200D89018361936E6
:1020C8001A361B361D061D66F8D718C00FF019C042
:1020D80010F01AC011F01BC012F012002CC030F022
:1020E800316A326A2B34303601E331803050336E36
:1020F800336607D0000E2A6E000E2B6E000E2C6E73
:1021080012002FC030F0316A326A2E34303601E3C3
:1021180031803050386E386607D0000E2A6E000EB7
:102128002B6E000E2C6E120038507B0F33262CC0FD
:1021380038F02F50381A800E38162B8E2E8EFF0E40
:102148002D16FF0E2E16000E2F16000E346E000EE2
:10215800356E000E366E070E376E2AA006D02D504B
:1021680034262E5035222F503622D8902C322B323E
:102178002A32D8902D362E362F36372EEED7090E26
:10218800376E2AA006D02D5034262E5035222F50D7
:102198003622D8902C322B322A32D8903632353229
:1021A8003432372EEED734C00FF035C010F036C0B9
:1021B80011F033C012F038C013F021EC12F00FC048
:1021C8002AF010C02BF011C02CF012001DC021F015
:1021D800226A236A1C34213601E322802150286EAA
:1021E800286607D0000E1B6E000E1C6E000E1D6EBA
:1021F800120020C021F0226A236A1F34213601E32D
:1022080022802150296E296607D0000E1B6E000E11
:102218001C6E000E1D6E1200000E256E000E266E3E
:10222800000E276E2950890F285E1DC029F0205006
:10223800291A800E29161C8EFF0E1B16FF0E1C165F
:10224800000E1D161F8EFF0E1E16FF0E1F16000E07
:102258002016180E246ED8902536263627361E509E
:102268001B5C1F501C5820501D58D8A007D01E506A
:102278001B5E1F501C5A20501D5A2580D8901B36B3
:102288001C361D36242EE7D725C00FF026C010F0C7
:1022980027C011F028C012F029C013F021EC12F069
:1022A8000FC01BF010C01CF011C01DF0120020EE72
:1022B800B2F010EE60F0090EDECFE6FFE82EFCD794
:1022C80074EC17F0550EFFEC16F0000E00016C6F61
:1022D8000ED000016C51010DF3503924D96EF45021
:1022E8003A20DA6EDF50FFEC16F000016C2B070E77
:1022F80000016C65EED7BE0EFFEC16F0000E000173
:102308006C6F10D000016C51010D0001600EF324B8
:10231800D96E0001000EF420DA6E50EC17F0DF6E73
:1023280000016C2B010E00016C65ECD774EC17F002
:10233800000161513D6E3C6A000160513C24176EFA
:102348000001000E3D20186E2DEC16F017C02AF083
:1023580018C02BF019C02CF0000E2D6E800E2E6EBA
:102368003D0E2F6E72EC10F02AC069F02BC06AF097
:102378002CC06BF069C039F06AC03AF06BC03BF012
:102388001200240E2D6EF40E2E6E450E2F6E000ECA
:102398001A6E000E1B6E410E1C6E68C00FF069C0ED
:1023A80010F06AC011F03DEC17F00FC017F010C024
:1023B80018F011C019F0E3EC0CF017C02AF018C09F
:1023C8002BF019C02CF072EC10F02AC06FF02BC063
:1023D80070F02CC071F0C00E1A6E3D0E1B6E450ECB
:1023E8001C6E6FC017F070C018F071C019F0E3ECE4
:1023F8000CF017C040F018C041F019C042F03EEC94
:102408000FF040C06BF041C06CF042C06DF043C0AB
:102418006EF066C0D9FF67C0DAFF6BC0DEFF6CC024
:10242800DDFFD58ED59CD59AD598D596D580D58201
:10243800D584F184F294F28A12001250D8B405D0EF
:102448000F5010101110D8A40CD0000E0F6E000EF3
:10245800106E000E116E1200122AD890113210322E
:102468000F32000E0F14146E000E1014156EFE0EAF
:102478001114166E145015101610D8B40CD0ECD7D1
:10248800122A010E0F26000E1022000E1122D890DB
:10249800113210320F32000E0F14146E000E101489
:1024A800156EFF0E1114166E145015101610D8B4B0
:1024B80006D0E6D71206D8900F361036113610AE71
:1024C800F9D712A0109ED890123212501112135040
:1024D800D8A4118E0FC00FF010C010F011C011F069
:1024E8001200000E1A6E1850800AF36E800EF35C0C
:1024F800000ED8B4175CD8B006D0176C181ED8B028
:10250800182A010E1A6E1650800AF36E800EF35CBC
:10251800000ED8B4155CD8B006D0156C161ED8B00D
:10252800162A010E1A1A000E1C6E000E1B6E185089
:102538001710D8B41CD0010E196E04D0D8901736D5
:102548001836192A18AEFAD7D8901B361C361750E9
:10255800155C18501658D8A005D01750155E18509D
:10256800165A1B80D89018321732192EEDD71A50E8
:10257800D8B404D01B6C1C1ED8B01C2A1BC015F084
:102588001CC016F01200800E1C6E250E1D6E000E6B
:102598001E6E000E1F6E42EC15F0800E1C6E250E8E
:1025A8001D6E000E1E6E000E1F6E10EC15F0A00EB4
:1025B8001C6E860E1D6E010E1E6E000E1F6E00EC48
:1025C80016F00001000E0001676F0001CA0E00013D
:1025D800666F000E0001686F800E0001696F3F0E84
:1025E80000016A6FC5EC11F00F015D93F28E0101D5
:1025F800010E0001976F0101000E0001966F7F0E1A
:102608000001996FDC0E0001986FAAEC14F001012B
:10261800010E106E0101000E0F6E71EC16F0120023
:10262800000E146E1050800AF36E800EF35C000EDC
:10263800D8B40F5CD8B006D00F6C101ED8B0102AD2
:10264800010E146E1250800AF36E800EF35C000EB9
:10265800D8B4115CD8B004D0116C121ED8B0122AAC
:1026680012501110D8B418D0010E136E04D0D8909F
:1026780011361236132A12AEFAD711500F5C1250C7
:102688001058D8A004D011500F5E1250105AD8908C
:1026980012321132132EF1D71450D8B404D00F6C63
:1026A800101ED8B0102A0FC00FF010C010F0120082
:1026B80011AE16D00FC015F010C016F011C017F0EB
:1026C800151E161E171E152A000E16221722000E9A
:1026D80015240F6E000E1620106E800E1720116E36
:1026E80014AE16D012C015F013C016F014C017F0AF
:1026F800151E161E171E152A000E16221722000E6A
:102708001524126E000E1620136E800E1720146EFC
:10271800000E0F1A000E101A800E111A000E121A4F
:10272800000E131A800E141A12500F5C1350105812
:1027380014501158D8B002D0D8901200D880120086
:10274800000E3E6E000E3D6E270EC26E000EC16E6C
:10275800AE0EC06EC2B2FED7C350C4CF3BF03C6AC7
:102768003BC03CF03B6A3B103D6E3C503E6E000E59
:102778001E6E800E1F6E450E206E3DC017F03EC0C7
:1027880018F02DEC16F017C01BF018C01CF019C07B
:102798001DF0EAEC10F01BC02AF01CC02BF01DC085
:1027A8002CF0000E2D6EA00E2E6E400E2F6E72ECC9
:1027B80010F039C0D9FF3AC0DAFF2AC0DEFF2BC0BB
:1027C800DEFF2CC0DDFFDD521200C2EC17F0000E58
:1027D800116E680EDDEC17F0040EAFEC17F0CBECC1
:1027E80017F0010E116E680EDDEC17F016C011F02F
:1027F80015C010F0000E126EE7EC16F018C011F0BC
:1028080017C010F0000E126EE7EC16F01AC011F0A7
:1028180019C010F0010E126EE7EC16F0B9EC17F0C3
:102828001AC010F019C00FF016EC17F018C010F00D
:1028380017C00FF01AC012F019C011F051EC16F0C1
:1028480016C010F015C00FF016EC17F01200000EAD
:10285800176E000E186E000E196E000E1A6E1650C6
:10286800131014101510D8B42AD0010E1B6E06D000
:10287800D89013361436153616361B2A16AEF8D7E6
:10288800D8901736183619361A3613500F5C14506C
:1028980010581550115816501258D8A009D0135076
:1028A8000F5E1450105A1550115A1650125A1780AC
:1028B800D89016321532143213321B2EE1D717C0B6
:1028C8000FF018C010F019C011F01AC012F0120061
:1028D800C2EC17F0000E116E680EDDEC17F0000E5A
:1028E800AFEC17F0CBEC17F0010E116E680EDDECB3
:1028F80017F018C011F017C010F0000E126EE7ECB8
:1029080016F016C011F015C010F0000E126EE7ECAC
:1029180016F014C011F013C010F0010E126EE7EC9F
:1029280016F0B9EC17F018C010F017C00FF016EC3D
:1029380017F016C010F015C00FF016EC17F014C001
:1029480010F013C00FF0D2EC15F01200000197C080
:10295800AFF0000196C0AEF0000E0001B16F000E9E
:102968000001B06F0001000E0001AD6F00019A0E6A
:102978000001AC6F0001000E0001676F0001AE0E90
:102988000001666F000199C069F0000198C068F005
:102998000001000E00016B6F0001AC0E00016A6FB0
:1029A80058EC00F0AEC0D9FFAFC0DAFF000EDF6E02
:1029B80012002350201021102210D8B424D0010E68
:1029C800246E06D0D8902036213622362336242A83
:1029D80023AEF8D720501C5C21501D5822501E5899
:1029E80023501F58D8A008D020501C5E21501D5AD3
:1029F80022501E5A23501F5AD89023322232213295
:102A08002032242EE7D71CC01CF01DC01DF01EC0AC
:102A18001EF01FC01FF01200938C938EA498A49AE6
:102A2800A38AA388A00EBA6E900EA66E400EB96E49
:102A3800000E0F6E120E106E7A0E116E000E126ED0
:102A48001CC013F01DC014F01EC015F01FC016F0F6
:102A58002BEC14F00FC020F010C021F011C022F0B0
:102A680012C023F0070E05D0D8902332223221322B
:102A78002032E82EF9D720047B6E1200948C948EB5
:102A88009E989E9A9D8A9D88A00EAC6E900EAB6E05
:102A9800400EA76E000E0F6E120E106E7A0E116E9B
:102AA800000E126E1CC013F01DC014F01EC015F0ED
:102AB8001FC016F02BEC14F00FC020F010C021F04E
:102AC80011C022F012C023F0070E05D0D89023328F
:102AD800223221322032E82EF9D72004AF6E1200BC
:102AE80001EE00F0500EEE6AE806FDE100EEB2F0ED
:102AF8001D0EEE6AE806FDE100EE49F0080EEE6AEA
:102B0800E806FDE1CA0EF66E2F0EF76E000EF86E9F
:102B180000EECFF010EE0EF00900F5CFEEFFE55015
:102B2800E150FAE1DA0EF66E2F0EF76E000EF86E2F
:102B38000900F5CF51F0000EF86E0001A3EF17F071
:102B48008E0E1F6E06D0D8901A32193218321732EC
:102B58001F2A000E17141B6E000E18141C6E000E90
:102B680019141D6EFF0E1A141E6E1E501B101C1019
:102B78001D10D8A4E8D717C00FF018C010F019C05E
:102B880011F01FC012F0000E136E21EC12F00FC0EE
:102B980017F010C018F011C019F012000FC0D9FFBB
:102BA80010C0DAFFDF50126E12500F0B116E12A810
:102BB80002D0010E01D0000E0A0DF35011240FC0EF
:102BC800D9FF10C0DAFFDF6E12AC09D012AA1200CA
:102BD8000FC0D9FF10C0DAFF0C0EDF26120012AAB0
:102BE80002D0010E01D0000E140D0FC0D9FF10C085
:102BF800DAFFF350DF261200C69A94889486C79CA1
:102C0800C79EC69EC69CC650F00B0809C66E800EAD
:102C18000F6E840E106E1E0E116E000E126E1CC00A
:102C280013F01DC014F01EC015F01FC016F02BECD9
:102C380014F00FC020F010C021F011C022F012C013
:102C480023F02004C86E9E969D86A196A086C68A0B
:102C58001200000E1A6E1850800AF36E800EF35C94
:102C6800000ED8B4175CD8B006D0176C181ED8B0B0
:102C7800182A010E1A6E17C00FF018C010F0116A4A
:102C88008E0E126E1AC013F021EC12F00FC017F05E
:102C980010C018F011C019F012000FC0D9FF10C0F1
:102CA800DAFFDF50146E14500F0B136E1438070B35
:102CB8000A0DF35013240FC0D9FF10C0DAFFDF6EDE
:102CC80014AE02D0010E01D0000E640D11C0D9FF60
:102CD80012C0DAFFF350DF261200000E126E000E4B
:102CE800116E0CD0BAA2FED711500F24D96E125013
:102CF8001020DA6EDF50796E114A122A11500F2413
:102D0800D96E12501020DA6EDF50D8A4EBD7BAA2D1
:102D1800FED7000E796E1200000E126E000E116EB4
:102D28000CD0ACA2FED711500F24D96E125010202F
:102D3800DA6EDF50AD6E114A122A11500F24D96E87
:102D480012501020DA6EDF50D8A4EBD7ACA2FED711
:102D5800000EAD6E1200010E0F140F6E106A1050A7
:102D68000F10D8B40BD092928092030EE82EFED7A3
:102D780000F09282280EE82EFED7120092928092DE
:102D88002E0EE82EFED700D0928200D000D012007E
:102D9800000E261A000E271A800E281A23C017F0D4
:102DA80024C018F025C019F026C01AF027C01BF05F
:102DB80028C01CF0E3EC0CF017C023F018C024F076
:102DC80019C025F01200D4EC17F0C586D4EC17F022
:102DD80010C0D9FF11C0DAFFC9CFDFFFD4EC17F05C
:102DE80012B002D0C59A01D0C58AC588C5B8FED729
:102DF800A1A61200FDD7126E000E136E070E136403
:102E080001D0120012C011F0010E111611500F6EF0
:102E1800106AAFEC16F0D8901232132A070E13641A
:102E2800F1D712000FC0D9FF10C0DAFFDF50126EC1
:102E380012500F0B116E12380F0B0A0DF35011249C
:102E48000FC0D9FF10C0DAFFDF6E12001D501F023D
:102E5800F3CF21F0F4CF22F01D502002F3502226A8
:102E68001E501F02F350222621C01DF022C01EF062
:102E780012007F0E111410100F10D8B406D0000ED7
:102E88000F1A000E101A800E111A0FC00FF010C082
:102E980010F011C011F01200000E106E000E116E2D
:102EA80008D0D890103262EC17F00009D8A4108E20
:102EB800112A070E1164F5D71050120092928092D1
:102EC80000D09282030EE82EFED700F0000E80B2EA
:102ED800010E0F6E240EE82EFED700D00F50120000
:102EE80092928092F00E00F0E82EFDD79282280E82
:102EF800E82EFED780B21200420EE82EFED700D090
:102F08001200116E000E106E3A0E115CD8B005D08A
:102F18002F0E116402D0010E106E10C00FF00F308A
:102F2800120074EC17F0CC0EFFEC16F0440EFFEC18
:102F380016F062EC17F00009D8A41200FAD7C7EC13
:102F480012F0B9EC0DF0000E0001D16F0001D15163
:102F5800D8A4F7D7FBD7106ED4EC17F010C0C9FF70
:102F6800C7B0FED7A1A61200FDD7A196D4EC17F0E2
:102F7800C584C5B4FED7A1A61200F7D7A196D4EC94
:102F880017F0C580C5B0FED7A1A61200F7D7A19645
:102F9800D4EC17F0C582C5B2FED7A1A61200F7D7A8
:102FA800C7B4FED7C5CF0FF01F0E0F16D8B4120046
:102FB800F7D7126E1250020DF3501124AFEC17F030
:102FC8001200D00701285344A30800009B010114F4
:042FD80012000100E2
:107ECC0000010000000A00000064000000E803004C
:107EDC000010270000A086010040420F00809698F9
:107EEC000000E1F50500CA9A3B00803FCDCC3DD7A0
:107EFC00233C12833AB7D138C62737388635C0D6DB
:107F0C0033CC2B32708930E7DB2EE53C1E42A20DC0
:107F1C0000803F00204100C842007A44401C46507B
:107F2C00C34724744997184BBCBE4C6B6E4E03155B
:107F3C005079AD60F34971010000001000000000A1
:107F4C000100000010000000000100000010000003
:107F5C0000000100000010253034642F25303264FD
:107F6C002F253032642D253032643A253032643A74
:107F7C002530326420202054656D706572617475F3
:107F8C0075723A2025662043202020566F6C746150
:107F9C0067653A20256620560A00253034642C2566
:107FAC003032642C253032642C253032642C253050
:107FBC0032642C253032642C25662C25660A003060
:107FCC003132333435363738396162636465660073
:107FDC00617070656E642066696C652E6373760AD9
:107FEC0000637263203D202578200D0A003078252F
:047FFC00782C0000DD
:020000040020DA
:08000000FFFFFFFFFFFFFFFF00
:020000040030CA
:0E0000001503797CFF8991FF0FC00FE00F40C0
:00000001FF
